{
  "_format": "hh-sol-artifact-1",
  "contractName": "WavePortal",
  "sourceName": "contracts/WavePortal.sol",
  "abi": [
    {
      "inputs": [],
      "stateMutability": "payable",
      "type": "constructor"
    },
    {
      "anonymous": false,
      "inputs": [
        {
          "indexed": true,
          "internalType": "address",
          "name": "from",
          "type": "address"
        },
        {
          "indexed": false,
          "internalType": "uint256",
          "name": "timestamp",
          "type": "uint256"
        },
        {
          "indexed": false,
          "internalType": "string",
          "name": "message",
          "type": "string"
        }
      ],
      "name": "NewWave",
      "type": "event"
    },
    {
      "inputs": [],
      "name": "getAllWaves",
      "outputs": [
        {
          "components": [
            {
              "internalType": "address",
              "name": "waver",
              "type": "address"
            },
            {
              "internalType": "string",
              "name": "message",
              "type": "string"
            },
            {
              "internalType": "uint256",
              "name": "timestamp",
              "type": "uint256"
            }
          ],
          "internalType": "struct WavePortal.Wave[]",
          "name": "",
          "type": "tuple[]"
        }
      ],
      "stateMutability": "view",
      "type": "function"
    },
    {
      "inputs": [],
      "name": "getTotalWaves",
      "outputs": [
        {
          "internalType": "uint256",
          "name": "",
          "type": "uint256"
        }
      ],
      "stateMutability": "view",
      "type": "function"
    },
    {
      "inputs": [],
      "name": "getWavers",
      "outputs": [],
      "stateMutability": "view",
      "type": "function"
    },
    {
      "inputs": [
        {
          "internalType": "address",
          "name": "",
          "type": "address"
        }
      ],
      "name": "lastWavedAt",
      "outputs": [
        {
          "internalType": "uint256",
          "name": "",
          "type": "uint256"
        }
      ],
      "stateMutability": "view",
      "type": "function"
    },
    {
      "inputs": [
        {
          "internalType": "string",
          "name": "_message",
          "type": "string"
        }
      ],
      "name": "wave",
      "outputs": [],
      "stateMutability": "nonpayable",
      "type": "function"
    }
  ],
  "bytecode": "0x60806040526200004f6040518060400160405280601381526020017f576176696e6720616e6420736d696c696e6721000000000000000000000000008152506200007760201b620008671760201c565b606444426200005f91906200017c565b6200006b9190620001e6565b600181905550620002dc565b62000117816040516024016200008e9190620002b8565b6040516020818303038152906040527f41304fac000000000000000000000000000000000000000000000000000000007bffffffffffffffffffffffffffffffffffffffffffffffffffffffff19166020820180517bffffffffffffffffffffffffffffffffffffffffffffffffffffffff83818316178352505050506200011a60201b60201c565b50565b60008151905060006a636f6e736f6c652e6c6f679050602083016000808483855afa5050505050565b6000819050919050565b7f4e487b7100000000000000000000000000000000000000000000000000000000600052601160045260246000fd5b6000620001898262000143565b9150620001968362000143565b9250828201905080821115620001b157620001b06200014d565b5b92915050565b7f4e487b7100000000000000000000000000000000000000000000000000000000600052601260045260246000fd5b6000620001f38262000143565b9150620002008362000143565b925082620002135762000212620001b7565b5b828206905092915050565b600081519050919050565b600082825260208201905092915050565b60005b838110156200025a5780820151818401526020810190506200023d565b60008484015250505050565b6000601f19601f8301169050919050565b600062000284826200021e565b62000290818562000229565b9350620002a28185602086016200023a565b620002ad8162000266565b840191505092915050565b60006020820190508181036000830152620002d4818462000277565b905092915050565b6117c280620002ec6000396000f3fe608060405234801561001057600080fd5b50600436106100575760003560e01c8063449d46c01461005c578063635f29f8146100785780639a2cdc0814610082578063a42a4663146100a0578063bd43a908146100d0575b600080fd5b61007660048036038101906100719190610cfc565b6100ee565b005b61008061059b565b005b61008a6106b3565b6040516100979190610d5e565b60405180910390f35b6100ba60048036038101906100b59190610dd7565b6106fe565b6040516100c79190610d5e565b60405180910390f35b6100d8610716565b6040516100e59190610fb3565b60405180910390f35b42601e600460003373ffffffffffffffffffffffffffffffffffffffff1673ffffffffffffffffffffffffffffffffffffffff1681526020019081526020016000205461013b9190611004565b1061017b576040517f08c379a0000000000000000000000000000000000000000000000000000000008152600401610172906110bb565b60405180910390fd5b42600460003373ffffffffffffffffffffffffffffffffffffffff1673ffffffffffffffffffffffffffffffffffffffff1681526020019081526020016000208190555060016000808282546101d19190611004565b925050819055506002339080600181540180825580915050600190039060005260206000200160009091909190916101000a81548173ffffffffffffffffffffffffffffffffffffffff021916908373ffffffffffffffffffffffffffffffffffffffff160217905550600360003373ffffffffffffffffffffffffffffffffffffffff1673ffffffffffffffffffffffffffffffffffffffff168152602001908152602001600020600081548092919061028b906110db565b91905055506102d06040518060400160405280601a81526020017f25732068617320776176656420772f206d6573736167652025730000000000008152503383610900565b600560405180606001604052803373ffffffffffffffffffffffffffffffffffffffff16815260200183815260200142815250908060018154018082558091505060019003906000526020600020906003020160009091909190915060008201518160000160006101000a81548173ffffffffffffffffffffffffffffffffffffffff021916908373ffffffffffffffffffffffffffffffffffffffff1602179055506020820151816001019081610388919061132f565b50604082015181600201555050606460015442446103a69190611004565b6103b09190611004565b6103ba9190611430565b6001819055506104016040518060400160405280601681526020017f52616e646f6d20232067656e6572617465643a2025640000000000000000000081525060015461099f565b603260015410156105485761044b6040518060400160405280600781526020017f257320776f6e210000000000000000000000000000000000000000000000000081525033610a3b565b6000655af3107a4000905047811115610499576040517f08c379a0000000000000000000000000000000000000000000000000000000008152600401610490906114d3565b60405180910390fd5b60003373ffffffffffffffffffffffffffffffffffffffff16826040516104bf90611524565b60006040518083038185875af1925050503d80600081146104fc576040519150601f19603f3d011682016040523d82523d6000602084013e610501565b606091505b5050905080610545576040517f08c379a000000000000000000000000000000000000000000000000000000000815260040161053c906115ab565b60405180910390fd5b50505b3373ffffffffffffffffffffffffffffffffffffffff167f5f7e16dc676677766a70e9c5628aa6c54ddb8b6e5188e2ae1e1f17f1ffbea7164283604051610590929190611604565b60405180910390a250565b6105d96040518060400160405280601681526020017f54686573652061726520746865207761766572733a0a00000000000000000000815250610867565b60005b6002805490508110156106b05761069d816040518060400160405280600181526020017f29000000000000000000000000000000000000000000000000000000000000008152506002848154811061063757610636611634565b5b9060005260206000200160009054906101000a900473ffffffffffffffffffffffffffffffffffffffff166040518060400160405280600181526020017f0a00000000000000000000000000000000000000000000000000000000000000815250610ad7565b80806106a8906110db565b9150506105dc565b50565b60006106f66040518060400160405280601781526020017f5765206861766520256420746f74616c2077617665732100000000000000000081525060005461099f565b600054905090565b60046020528060005260406000206000915090505481565b60606005805480602002602001604051908101604052809291908181526020016000905b8282101561085e57838290600052602060002090600302016040518060600160405290816000820160009054906101000a900473ffffffffffffffffffffffffffffffffffffffff1673ffffffffffffffffffffffffffffffffffffffff1673ffffffffffffffffffffffffffffffffffffffff1681526020016001820180546107c390611152565b80601f01602080910402602001604051908101604052809291908181526020018280546107ef90611152565b801561083c5780601f106108115761010080835404028352916020019161083c565b820191906000526020600020905b81548152906001019060200180831161081f57829003601f168201915b505050505081526020016002820154815250508152602001906001019061073a565b50505050905090565b6108fd8160405160240161087b9190611663565b6040516020818303038152906040527f41304fac000000000000000000000000000000000000000000000000000000007bffffffffffffffffffffffffffffffffffffffffffffffffffffffff19166020820180517bffffffffffffffffffffffffffffffffffffffffffffffffffffffff8381831617835250505050610b79565b50565b61099a83838360405160240161091893929190611694565b6040516020818303038152906040527fe0e9ad4f000000000000000000000000000000000000000000000000000000007bffffffffffffffffffffffffffffffffffffffffffffffffffffffff19166020820180517bffffffffffffffffffffffffffffffffffffffffffffffffffffffff8381831617835250505050610b79565b505050565b610a3782826040516024016109b59291906116d9565b6040516020818303038152906040527fb60e72cc000000000000000000000000000000000000000000000000000000007bffffffffffffffffffffffffffffffffffffffffffffffffffffffff19166020820180517bffffffffffffffffffffffffffffffffffffffffffffffffffffffff8381831617835250505050610b79565b5050565b610ad38282604051602401610a51929190611709565b6040516020818303038152906040527f319af333000000000000000000000000000000000000000000000000000000007bffffffffffffffffffffffffffffffffffffffffffffffffffffffff19166020820180517bffffffffffffffffffffffffffffffffffffffffffffffffffffffff8381831617835250505050610b79565b5050565b610b7384848484604051602401610af19493929190611739565b6040516020818303038152906040527f9c3adfa1000000000000000000000000000000000000000000000000000000007bffffffffffffffffffffffffffffffffffffffffffffffffffffffff19166020820180517bffffffffffffffffffffffffffffffffffffffffffffffffffffffff8381831617835250505050610b79565b50505050565b60008151905060006a636f6e736f6c652e6c6f679050602083016000808483855afa5050505050565b6000604051905090565b600080fd5b600080fd5b600080fd5b600080fd5b6000601f19601f8301169050919050565b7f4e487b7100000000000000000000000000000000000000000000000000000000600052604160045260246000fd5b610c0982610bc0565b810181811067ffffffffffffffff82111715610c2857610c27610bd1565b5b80604052505050565b6000610c3b610ba2565b9050610c478282610c00565b919050565b600067ffffffffffffffff821115610c6757610c66610bd1565b5b610c7082610bc0565b9050602081019050919050565b82818337600083830152505050565b6000610c9f610c9a84610c4c565b610c31565b905082815260208101848484011115610cbb57610cba610bbb565b5b610cc6848285610c7d565b509392505050565b600082601f830112610ce357610ce2610bb6565b5b8135610cf3848260208601610c8c565b91505092915050565b600060208284031215610d1257610d11610bac565b5b600082013567ffffffffffffffff811115610d3057610d2f610bb1565b5b610d3c84828501610cce565b91505092915050565b6000819050919050565b610d5881610d45565b82525050565b6000602082019050610d736000830184610d4f565b92915050565b600073ffffffffffffffffffffffffffffffffffffffff82169050919050565b6000610da482610d79565b9050919050565b610db481610d99565b8114610dbf57600080fd5b50565b600081359050610dd181610dab565b92915050565b600060208284031215610ded57610dec610bac565b5b6000610dfb84828501610dc2565b91505092915050565b600081519050919050565b600082825260208201905092915050565b6000819050602082019050919050565b610e3981610d99565b82525050565b600081519050919050565b600082825260208201905092915050565b60005b83811015610e79578082015181840152602081019050610e5e565b60008484015250505050565b6000610e9082610e3f565b610e9a8185610e4a565b9350610eaa818560208601610e5b565b610eb381610bc0565b840191505092915050565b610ec781610d45565b82525050565b6000606083016000830151610ee56000860182610e30565b5060208301518482036020860152610efd8282610e85565b9150506040830151610f126040860182610ebe565b508091505092915050565b6000610f298383610ecd565b905092915050565b6000602082019050919050565b6000610f4982610e04565b610f538185610e0f565b935083602082028501610f6585610e20565b8060005b85811015610fa15784840389528151610f828582610f1d565b9450610f8d83610f31565b925060208a01995050600181019050610f69565b50829750879550505050505092915050565b60006020820190508181036000830152610fcd8184610f3e565b905092915050565b7f4e487b7100000000000000000000000000000000000000000000000000000000600052601160045260246000fd5b600061100f82610d45565b915061101a83610d45565b925082820190508082111561103257611031610fd5565b5b92915050565b600082825260208201905092915050565b7f57616974203330207365636f6e6473206265666f726520636f6e73657175656e60008201527f7420776176652100000000000000000000000000000000000000000000000000602082015250565b60006110a5602783611038565b91506110b082611049565b604082019050919050565b600060208201905081810360008301526110d481611098565b9050919050565b60006110e682610d45565b91507fffffffffffffffffffffffffffffffffffffffffffffffffffffffffffffffff820361111857611117610fd5565b5b600182019050919050565b7f4e487b7100000000000000000000000000000000000000000000000000000000600052602260045260246000fd5b6000600282049050600182168061116a57607f821691505b60208210810361117d5761117c611123565b5b50919050565b60008190508160005260206000209050919050565b60006020601f8301049050919050565b600082821b905092915050565b6000600883026111e57fffffffffffffffffffffffffffffffffffffffffffffffffffffffffffffffff826111a8565b6111ef86836111a8565b95508019841693508086168417925050509392505050565b6000819050919050565b600061122c61122761122284610d45565b611207565b610d45565b9050919050565b6000819050919050565b61124683611211565b61125a61125282611233565b8484546111b5565b825550505050565b600090565b61126f611262565b61127a81848461123d565b505050565b5b8181101561129e57611293600082611267565b600181019050611280565b5050565b601f8211156112e3576112b481611183565b6112bd84611198565b810160208510156112cc578190505b6112e06112d885611198565b83018261127f565b50505b505050565b600082821c905092915050565b6000611306600019846008026112e8565b1980831691505092915050565b600061131f83836112f5565b9150826002028217905092915050565b61133882610e3f565b67ffffffffffffffff81111561135157611350610bd1565b5b61135b8254611152565b6113668282856112a2565b600060209050601f8311600181146113995760008415611387578287015190505b6113918582611313565b8655506113f9565b601f1984166113a786611183565b60005b828110156113cf578489015182556001820191506020850194506020810190506113aa565b868310156113ec57848901516113e8601f8916826112f5565b8355505b6001600288020188555050505b505050505050565b7f4e487b7100000000000000000000000000000000000000000000000000000000600052601260045260246000fd5b600061143b82610d45565b915061144683610d45565b92508261145657611455611401565b5b828206905092915050565b7f547279696e6720746f207769746864726177206d6f7265206d6f6e657920746860008201527f616e2074686520636f6e7472616374206861732e000000000000000000000000602082015250565b60006114bd603483611038565b91506114c882611461565b604082019050919050565b600060208201905081810360008301526114ec816114b0565b9050919050565b600081905092915050565b50565b600061150e6000836114f3565b9150611519826114fe565b600082019050919050565b600061152f82611501565b9150819050919050565b7f4661696c656420746f207769746864726177206d6f6e65792066726f6d20636f60008201527f6e74726163742e00000000000000000000000000000000000000000000000000602082015250565b6000611595602783611038565b91506115a082611539565b604082019050919050565b600060208201905081810360008301526115c481611588565b9050919050565b60006115d682610e3f565b6115e08185611038565b93506115f0818560208601610e5b565b6115f981610bc0565b840191505092915050565b60006040820190506116196000830185610d4f565b818103602083015261162b81846115cb565b90509392505050565b7f4e487b7100000000000000000000000000000000000000000000000000000000600052603260045260246000fd5b6000602082019050818103600083015261167d81846115cb565b905092915050565b61168e81610d99565b82525050565b600060608201905081810360008301526116ae81866115cb565b90506116bd6020830185611685565b81810360408301526116cf81846115cb565b9050949350505050565b600060408201905081810360008301526116f381856115cb565b90506117026020830184610d4f565b9392505050565b6000604082019050818103600083015261172381856115cb565b90506117326020830184611685565b9392505050565b600060808201905061174e6000830187610d4f565b818103602083015261176081866115cb565b905061176f6040830185611685565b818103606083015261178181846115cb565b90509594505050505056fea2646970667358221220696f85724e0d3cab1099945c127b7b24e4f39203db0fea946f40ee3b8c9dffac64736f6c63430008110033",
  "linkReferences": {},
  "deployedLinkReferences": {}
}