{
  "_format": "hh-sol-artifact-1",
  "contractName": "WavePortal",
  "sourceName": "contracts/WavePortal.sol",
  "abi": [
    {
      "inputs": [],
      "stateMutability": "nonpayable",
      "type": "constructor"
    },
    {
      "anonymous": false,
      "inputs": [
        {
          "indexed": true,
          "internalType": "address",
          "name": "from",
          "type": "address"
        },
        {
          "indexed": false,
          "internalType": "uint256",
          "name": "timestamp",
          "type": "uint256"
        },
        {
          "indexed": false,
          "internalType": "string",
          "name": "message",
          "type": "string"
        }
      ],
      "name": "NewWave",
      "type": "event"
    },
    {
      "inputs": [],
      "name": "getAllWaves",
      "outputs": [
        {
          "components": [
            {
              "internalType": "address",
              "name": "waver",
              "type": "address"
            },
            {
              "internalType": "string",
              "name": "message",
              "type": "string"
            },
            {
              "internalType": "uint256",
              "name": "timestamp",
              "type": "uint256"
            }
          ],
          "internalType": "struct WavePortal.Wave[]",
          "name": "",
          "type": "tuple[]"
        }
      ],
      "stateMutability": "view",
      "type": "function"
    },
    {
      "inputs": [],
      "name": "getTotalWaves",
      "outputs": [
        {
          "internalType": "uint256",
          "name": "",
          "type": "uint256"
        }
      ],
      "stateMutability": "view",
      "type": "function"
    },
    {
      "inputs": [],
      "name": "getWavers",
      "outputs": [],
      "stateMutability": "view",
      "type": "function"
    },
    {
      "inputs": [
        {
          "internalType": "string",
          "name": "_message",
          "type": "string"
        }
      ],
      "name": "wave",
      "outputs": [],
      "stateMutability": "nonpayable",
      "type": "function"
    }
  ],
  "bytecode": "0x60806040523480156200001157600080fd5b506200005d6040518060400160405280601381526020017f576176696e6720616e6420736d696c696e6721000000000000000000000000008152506200006360201b620005901760201c565b620001ed565b62000103816040516024016200007a9190620001c9565b6040516020818303038152906040527f41304fac000000000000000000000000000000000000000000000000000000007bffffffffffffffffffffffffffffffffffffffffffffffffffffffff19166020820180517bffffffffffffffffffffffffffffffffffffffffffffffffffffffff83818316178352505050506200010660201b60201c565b50565b60008151905060006a636f6e736f6c652e6c6f679050602083016000808483855afa5050505050565b600081519050919050565b600082825260208201905092915050565b60005b838110156200016b5780820151818401526020810190506200014e565b60008484015250505050565b6000601f19601f8301169050919050565b600062000195826200012f565b620001a181856200013a565b9350620001b38185602086016200014b565b620001be8162000177565b840191505092915050565b60006020820190508181036000830152620001e5818462000188565b905092915050565b61116a80620001fd6000396000f3fe608060405234801561001057600080fd5b506004361061004c5760003560e01c8063449d46c014610051578063635f29f81461006d5780639a2cdc0814610077578063bd43a90814610095575b600080fd5b61006b60048036038101906100669190610989565b6100b3565b005b6100756102dc565b005b61007f6103f4565b60405161008c91906109eb565b60405180910390f35b61009d61043f565b6040516100aa9190610be7565b60405180910390f35b60016000808282546100c59190610c38565b925050819055506001339080600181540180825580915050600190039060005260206000200160009091909190916101000a81548173ffffffffffffffffffffffffffffffffffffffff021916908373ffffffffffffffffffffffffffffffffffffffff160217905550600260003373ffffffffffffffffffffffffffffffffffffffff1673ffffffffffffffffffffffffffffffffffffffff168152602001908152602001600020600081548092919061017f90610c6c565b91905055506101c46040518060400160405280601a81526020017f25732068617320776176656420772f206d6573736167652025730000000000008152503383610629565b600360405180606001604052803373ffffffffffffffffffffffffffffffffffffffff16815260200183815260200142815250908060018154018082558091505060019003906000526020600020906003020160009091909190915060008201518160000160006101000a81548173ffffffffffffffffffffffffffffffffffffffff021916908373ffffffffffffffffffffffffffffffffffffffff160217905550602082015181600101908161027c9190610ec0565b506040820151816002015550503373ffffffffffffffffffffffffffffffffffffffff167f5f7e16dc676677766a70e9c5628aa6c54ddb8b6e5188e2ae1e1f17f1ffbea71642836040516102d1929190610fdc565b60405180910390a250565b61031a6040518060400160405280601681526020017f54686573652061726520746865207761766572733a0a00000000000000000000815250610590565b60005b6001805490508110156103f1576103de816040518060400160405280600181526020017f2900000000000000000000000000000000000000000000000000000000000000815250600184815481106103785761037761100c565b5b9060005260206000200160009054906101000a900473ffffffffffffffffffffffffffffffffffffffff166040518060400160405280600181526020017f0a000000000000000000000000000000000000000000000000000000000000008152506106c8565b80806103e990610c6c565b91505061031d565b50565b60006104376040518060400160405280601781526020017f5765206861766520256420746f74616c2077617665732100000000000000000081525060005461076a565b600054905090565b60606003805480602002602001604051908101604052809291908181526020016000905b8282101561058757838290600052602060002090600302016040518060600160405290816000820160009054906101000a900473ffffffffffffffffffffffffffffffffffffffff1673ffffffffffffffffffffffffffffffffffffffff1673ffffffffffffffffffffffffffffffffffffffff1681526020016001820180546104ec90610ce3565b80601f016020809104026020016040519081016040528092919081815260200182805461051890610ce3565b80156105655780601f1061053a57610100808354040283529160200191610565565b820191906000526020600020905b81548152906001019060200180831161054857829003601f168201915b5050505050815260200160028201548152505081526020019060010190610463565b50505050905090565b610626816040516024016105a4919061103b565b6040516020818303038152906040527f41304fac000000000000000000000000000000000000000000000000000000007bffffffffffffffffffffffffffffffffffffffffffffffffffffffff19166020820180517bffffffffffffffffffffffffffffffffffffffffffffffffffffffff8381831617835250505050610806565b50565b6106c38383836040516024016106419392919061106c565b6040516020818303038152906040527fe0e9ad4f000000000000000000000000000000000000000000000000000000007bffffffffffffffffffffffffffffffffffffffffffffffffffffffff19166020820180517bffffffffffffffffffffffffffffffffffffffffffffffffffffffff8381831617835250505050610806565b505050565b610764848484846040516024016106e294939291906110b1565b6040516020818303038152906040527f9c3adfa1000000000000000000000000000000000000000000000000000000007bffffffffffffffffffffffffffffffffffffffffffffffffffffffff19166020820180517bffffffffffffffffffffffffffffffffffffffffffffffffffffffff8381831617835250505050610806565b50505050565b6108028282604051602401610780929190611104565b6040516020818303038152906040527fb60e72cc000000000000000000000000000000000000000000000000000000007bffffffffffffffffffffffffffffffffffffffffffffffffffffffff19166020820180517bffffffffffffffffffffffffffffffffffffffffffffffffffffffff8381831617835250505050610806565b5050565b60008151905060006a636f6e736f6c652e6c6f679050602083016000808483855afa5050505050565b6000604051905090565b600080fd5b600080fd5b600080fd5b600080fd5b6000601f19601f8301169050919050565b7f4e487b7100000000000000000000000000000000000000000000000000000000600052604160045260246000fd5b6108968261084d565b810181811067ffffffffffffffff821117156108b5576108b461085e565b5b80604052505050565b60006108c861082f565b90506108d4828261088d565b919050565b600067ffffffffffffffff8211156108f4576108f361085e565b5b6108fd8261084d565b9050602081019050919050565b82818337600083830152505050565b600061092c610927846108d9565b6108be565b90508281526020810184848401111561094857610947610848565b5b61095384828561090a565b509392505050565b600082601f8301126109705761096f610843565b5b8135610980848260208601610919565b91505092915050565b60006020828403121561099f5761099e610839565b5b600082013567ffffffffffffffff8111156109bd576109bc61083e565b5b6109c98482850161095b565b91505092915050565b6000819050919050565b6109e5816109d2565b82525050565b6000602082019050610a0060008301846109dc565b92915050565b600081519050919050565b600082825260208201905092915050565b6000819050602082019050919050565b600073ffffffffffffffffffffffffffffffffffffffff82169050919050565b6000610a5d82610a32565b9050919050565b610a6d81610a52565b82525050565b600081519050919050565b600082825260208201905092915050565b60005b83811015610aad578082015181840152602081019050610a92565b60008484015250505050565b6000610ac482610a73565b610ace8185610a7e565b9350610ade818560208601610a8f565b610ae78161084d565b840191505092915050565b610afb816109d2565b82525050565b6000606083016000830151610b196000860182610a64565b5060208301518482036020860152610b318282610ab9565b9150506040830151610b466040860182610af2565b508091505092915050565b6000610b5d8383610b01565b905092915050565b6000602082019050919050565b6000610b7d82610a06565b610b878185610a11565b935083602082028501610b9985610a22565b8060005b85811015610bd55784840389528151610bb68582610b51565b9450610bc183610b65565b925060208a01995050600181019050610b9d565b50829750879550505050505092915050565b60006020820190508181036000830152610c018184610b72565b905092915050565b7f4e487b7100000000000000000000000000000000000000000000000000000000600052601160045260246000fd5b6000610c43826109d2565b9150610c4e836109d2565b9250828201905080821115610c6657610c65610c09565b5b92915050565b6000610c77826109d2565b91507fffffffffffffffffffffffffffffffffffffffffffffffffffffffffffffffff8203610ca957610ca8610c09565b5b600182019050919050565b7f4e487b7100000000000000000000000000000000000000000000000000000000600052602260045260246000fd5b60006002820490506001821680610cfb57607f821691505b602082108103610d0e57610d0d610cb4565b5b50919050565b60008190508160005260206000209050919050565b60006020601f8301049050919050565b600082821b905092915050565b600060088302610d767fffffffffffffffffffffffffffffffffffffffffffffffffffffffffffffffff82610d39565b610d808683610d39565b95508019841693508086168417925050509392505050565b6000819050919050565b6000610dbd610db8610db3846109d2565b610d98565b6109d2565b9050919050565b6000819050919050565b610dd783610da2565b610deb610de382610dc4565b848454610d46565b825550505050565b600090565b610e00610df3565b610e0b818484610dce565b505050565b5b81811015610e2f57610e24600082610df8565b600181019050610e11565b5050565b601f821115610e7457610e4581610d14565b610e4e84610d29565b81016020851015610e5d578190505b610e71610e6985610d29565b830182610e10565b50505b505050565b600082821c905092915050565b6000610e9760001984600802610e79565b1980831691505092915050565b6000610eb08383610e86565b9150826002028217905092915050565b610ec982610a73565b67ffffffffffffffff811115610ee257610ee161085e565b5b610eec8254610ce3565b610ef7828285610e33565b600060209050601f831160018114610f2a5760008415610f18578287015190505b610f228582610ea4565b865550610f8a565b601f198416610f3886610d14565b60005b82811015610f6057848901518255600182019150602085019450602081019050610f3b565b86831015610f7d5784890151610f79601f891682610e86565b8355505b6001600288020188555050505b505050505050565b600082825260208201905092915050565b6000610fae82610a73565b610fb88185610f92565b9350610fc8818560208601610a8f565b610fd18161084d565b840191505092915050565b6000604082019050610ff160008301856109dc565b81810360208301526110038184610fa3565b90509392505050565b7f4e487b7100000000000000000000000000000000000000000000000000000000600052603260045260246000fd5b600060208201905081810360008301526110558184610fa3565b905092915050565b61106681610a52565b82525050565b600060608201905081810360008301526110868186610fa3565b9050611095602083018561105d565b81810360408301526110a78184610fa3565b9050949350505050565b60006080820190506110c660008301876109dc565b81810360208301526110d88186610fa3565b90506110e7604083018561105d565b81810360608301526110f98184610fa3565b905095945050505050565b6000604082019050818103600083015261111e8185610fa3565b905061112d60208301846109dc565b939250505056fea264697066735822122010c55ab42e7a6bd8cc80ce1cb3e1e719bf809c9dac881dbbdbde973d44d77a4d64736f6c63430008110033",
  "linkReferences": {},
  "deployedLinkReferences": {}
}