{
  "_format": "hh-sol-artifact-1",
  "contractName": "WavePortal",
  "sourceName": "contracts/WavePortal.sol",
  "abi": [
    {
      "inputs": [],
      "stateMutability": "nonpayable",
      "type": "constructor"
    },
    {
      "inputs": [],
      "name": "getTotalWaves",
      "outputs": [
        {
          "internalType": "uint256",
          "name": "",
          "type": "uint256"
        }
      ],
      "stateMutability": "view",
      "type": "function"
    },
    {
      "inputs": [],
      "name": "getWavers",
      "outputs": [],
      "stateMutability": "view",
      "type": "function"
    },
    {
      "inputs": [],
      "name": "wave",
      "outputs": [],
      "stateMutability": "nonpayable",
      "type": "function"
    }
  ],
  "bytecode": "0x608060405234801561001057600080fd5b5061003c604051806060016040528060298152602001610a8e6029913961004160201b61032d1760201c565b6101bb565b6100dd816040516024016100559190610199565b6040516020818303038152906040527f41304fac000000000000000000000000000000000000000000000000000000007bffffffffffffffffffffffffffffffffffffffffffffffffffffffff19166020820180517bffffffffffffffffffffffffffffffffffffffffffffffffffffffff83818316178352505050506100e060201b60201c565b50565b60008151905060006a636f6e736f6c652e6c6f679050602083016000808483855afa5050505050565b600081519050919050565b600082825260208201905092915050565b60005b83811015610143578082015181840152602081019050610128565b60008484015250505050565b6000601f19601f8301169050919050565b600061016b82610109565b6101758185610114565b9350610185818560208601610125565b61018e8161014f565b840191505092915050565b600060208201905081810360008301526101b38184610160565b905092915050565b6108c4806101ca6000396000f3fe608060405234801561001057600080fd5b50600436106100415760003560e01c8063635f29f8146100465780636fe15b44146100505780639a2cdc081461005a575b600080fd5b61004e610078565b005b610058610190565b005b6100626102e2565b60405161006f91906105e5565b60405180910390f35b6100b66040518060400160405280601681526020017f54686573652061726520746865207761766572733a0a0000000000000000000081525061032d565b60005b60018054905081101561018d5761017a816040518060400160405280600181526020017f29000000000000000000000000000000000000000000000000000000000000008152506001848154811061011457610113610600565b5b9060005260206000200160009054906101000a900473ffffffffffffffffffffffffffffffffffffffff166040518060400160405280600181526020017f0a000000000000000000000000000000000000000000000000000000000000008152506103c6565b80806101859061065e565b9150506100b9565b50565b60016000808282546101a291906106a6565b925050819055506001339080600181540180825580915050600190039060005260206000200160009091909190916101000a81548173ffffffffffffffffffffffffffffffffffffffff021916908373ffffffffffffffffffffffffffffffffffffffff160217905550600260003373ffffffffffffffffffffffffffffffffffffffff1673ffffffffffffffffffffffffffffffffffffffff168152602001908152602001600020600081548092919061025c9061065e565b91905055506102e06040518060400160405280601681526020017f2573206861732077617665642025642074696d6573210000000000000000000081525033600260003373ffffffffffffffffffffffffffffffffffffffff1673ffffffffffffffffffffffffffffffffffffffff16815260200190815260200160002054610468565b565b60006103256040518060400160405280601781526020017f5765206861766520256420746f74616c20776176657321000000000000000000815250600054610507565b600054905090565b6103c381604051602401610341919061076a565b6040516020818303038152906040527f41304fac000000000000000000000000000000000000000000000000000000007bffffffffffffffffffffffffffffffffffffffffffffffffffffffff19166020820180517bffffffffffffffffffffffffffffffffffffffffffffffffffffffff83818316178352505050506105a3565b50565b610462848484846040516024016103e094939291906107cd565b6040516020818303038152906040527f9c3adfa1000000000000000000000000000000000000000000000000000000007bffffffffffffffffffffffffffffffffffffffffffffffffffffffff19166020820180517bffffffffffffffffffffffffffffffffffffffffffffffffffffffff83818316178352505050506105a3565b50505050565b61050283838360405160240161048093929190610820565b6040516020818303038152906040527f0d26b925000000000000000000000000000000000000000000000000000000007bffffffffffffffffffffffffffffffffffffffffffffffffffffffff19166020820180517bffffffffffffffffffffffffffffffffffffffffffffffffffffffff83818316178352505050506105a3565b505050565b61059f828260405160240161051d92919061085e565b6040516020818303038152906040527fb60e72cc000000000000000000000000000000000000000000000000000000007bffffffffffffffffffffffffffffffffffffffffffffffffffffffff19166020820180517bffffffffffffffffffffffffffffffffffffffffffffffffffffffff83818316178352505050506105a3565b5050565b60008151905060006a636f6e736f6c652e6c6f679050602083016000808483855afa5050505050565b6000819050919050565b6105df816105cc565b82525050565b60006020820190506105fa60008301846105d6565b92915050565b7f4e487b7100000000000000000000000000000000000000000000000000000000600052603260045260246000fd5b7f4e487b7100000000000000000000000000000000000000000000000000000000600052601160045260246000fd5b6000610669826105cc565b91507fffffffffffffffffffffffffffffffffffffffffffffffffffffffffffffffff820361069b5761069a61062f565b5b600182019050919050565b60006106b1826105cc565b91506106bc836105cc565b92508282019050808211156106d4576106d361062f565b5b92915050565b600081519050919050565b600082825260208201905092915050565b60005b838110156107145780820151818401526020810190506106f9565b60008484015250505050565b6000601f19601f8301169050919050565b600061073c826106da565b61074681856106e5565b93506107568185602086016106f6565b61075f81610720565b840191505092915050565b600060208201905081810360008301526107848184610731565b905092915050565b600073ffffffffffffffffffffffffffffffffffffffff82169050919050565b60006107b78261078c565b9050919050565b6107c7816107ac565b82525050565b60006080820190506107e260008301876105d6565b81810360208301526107f48186610731565b905061080360408301856107be565b81810360608301526108158184610731565b905095945050505050565b6000606082019050818103600083015261083a8186610731565b905061084960208301856107be565b61085660408301846105d6565b949350505050565b600060408201905081810360008301526108788185610731565b905061088760208301846105d6565b939250505056fea2646970667358221220921fe90b2a4d5982083248cb7d11a52d8ee734a3924051859c77b0608d2fcbdf64736f6c6343000811003352697070696e6720746865207761766520616e6420656e6a6f79696e67207468652062617272656c21",
  "linkReferences": {},
  "deployedLinkReferences": {}
}