{
  "_format": "hh-sol-artifact-1",
  "contractName": "WavePortal",
  "sourceName": "contracts/WavePortal.sol",
  "abi": [
    {
      "inputs": [],
      "stateMutability": "payable",
      "type": "constructor"
    },
    {
      "anonymous": false,
      "inputs": [
        {
          "indexed": true,
          "internalType": "address",
          "name": "from",
          "type": "address"
        },
        {
          "indexed": false,
          "internalType": "uint256",
          "name": "timestamp",
          "type": "uint256"
        },
        {
          "indexed": false,
          "internalType": "string",
          "name": "message",
          "type": "string"
        }
      ],
      "name": "NewWave",
      "type": "event"
    },
    {
      "inputs": [],
      "name": "getAllWaves",
      "outputs": [
        {
          "components": [
            {
              "internalType": "address",
              "name": "waver",
              "type": "address"
            },
            {
              "internalType": "string",
              "name": "message",
              "type": "string"
            },
            {
              "internalType": "uint256",
              "name": "timestamp",
              "type": "uint256"
            }
          ],
          "internalType": "struct WavePortal.Wave[]",
          "name": "",
          "type": "tuple[]"
        }
      ],
      "stateMutability": "view",
      "type": "function"
    },
    {
      "inputs": [],
      "name": "getTotalWaves",
      "outputs": [
        {
          "internalType": "uint256",
          "name": "",
          "type": "uint256"
        }
      ],
      "stateMutability": "view",
      "type": "function"
    },
    {
      "inputs": [],
      "name": "getWavers",
      "outputs": [],
      "stateMutability": "view",
      "type": "function"
    },
    {
      "inputs": [
        {
          "internalType": "string",
          "name": "_message",
          "type": "string"
        }
      ],
      "name": "wave",
      "outputs": [],
      "stateMutability": "nonpayable",
      "type": "function"
    }
  ],
  "bytecode": "0x60806040526200004f6040518060400160405280601381526020017f576176696e6720616e6420736d696c696e6721000000000000000000000000008152506200005560201b6200068c1760201c565b620001df565b620000f5816040516024016200006c9190620001bb565b6040516020818303038152906040527f41304fac000000000000000000000000000000000000000000000000000000007bffffffffffffffffffffffffffffffffffffffffffffffffffffffff19166020820180517bffffffffffffffffffffffffffffffffffffffffffffffffffffffff8381831617835250505050620000f860201b60201c565b50565b60008151905060006a636f6e736f6c652e6c6f679050602083016000808483855afa5050505050565b600081519050919050565b600082825260208201905092915050565b60005b838110156200015d57808201518184015260208101905062000140565b60008484015250505050565b6000601f19601f8301169050919050565b6000620001878262000121565b6200019381856200012c565b9350620001a58185602086016200013d565b620001b08162000169565b840191505092915050565b60006020820190508181036000830152620001d781846200017a565b905092915050565b6113d080620001ef6000396000f3fe608060405234801561001057600080fd5b506004361061004c5760003560e01c8063449d46c014610051578063635f29f81461006d5780639a2cdc0814610077578063bd43a90814610095575b600080fd5b61006b60048036038101906100669190610a85565b6100b3565b005b6100756103d8565b005b61007f6104f0565b60405161008c9190610ae7565b60405180910390f35b61009d61053b565b6040516100aa9190610ce3565b60405180910390f35b60016000808282546100c59190610d34565b925050819055506001339080600181540180825580915050600190039060005260206000200160009091909190916101000a81548173ffffffffffffffffffffffffffffffffffffffff021916908373ffffffffffffffffffffffffffffffffffffffff160217905550600260003373ffffffffffffffffffffffffffffffffffffffff1673ffffffffffffffffffffffffffffffffffffffff168152602001908152602001600020600081548092919061017f90610d68565b91905055506101c46040518060400160405280601a81526020017f25732068617320776176656420772f206d6573736167652025730000000000008152503383610725565b600360405180606001604052803373ffffffffffffffffffffffffffffffffffffffff16815260200183815260200142815250908060018154018082558091505060019003906000526020600020906003020160009091909190915060008201518160000160006101000a81548173ffffffffffffffffffffffffffffffffffffffff021916908373ffffffffffffffffffffffffffffffffffffffff160217905550602082015181600101908161027c9190610fbc565b506040820151816002015550503373ffffffffffffffffffffffffffffffffffffffff167f5f7e16dc676677766a70e9c5628aa6c54ddb8b6e5188e2ae1e1f17f1ffbea71642836040516102d19291906110d8565b60405180910390a26000655af3107a4000905047811115610327576040517f08c379a000000000000000000000000000000000000000000000000000000000815260040161031e9061117a565b60405180910390fd5b60003373ffffffffffffffffffffffffffffffffffffffff168260405161034d906111cb565b60006040518083038185875af1925050503d806000811461038a576040519150601f19603f3d011682016040523d82523d6000602084013e61038f565b606091505b50509050806103d3576040517f08c379a00000000000000000000000000000000000000000000000000000000081526004016103ca90611252565b60405180910390fd5b505050565b6104166040518060400160405280601681526020017f54686573652061726520746865207761766572733a0a0000000000000000000081525061068c565b60005b6001805490508110156104ed576104da816040518060400160405280600181526020017f29000000000000000000000000000000000000000000000000000000000000008152506001848154811061047457610473611272565b5b9060005260206000200160009054906101000a900473ffffffffffffffffffffffffffffffffffffffff166040518060400160405280600181526020017f0a000000000000000000000000000000000000000000000000000000000000008152506107c4565b80806104e590610d68565b915050610419565b50565b60006105336040518060400160405280601781526020017f5765206861766520256420746f74616c20776176657321000000000000000000815250600054610866565b600054905090565b60606003805480602002602001604051908101604052809291908181526020016000905b8282101561068357838290600052602060002090600302016040518060600160405290816000820160009054906101000a900473ffffffffffffffffffffffffffffffffffffffff1673ffffffffffffffffffffffffffffffffffffffff1673ffffffffffffffffffffffffffffffffffffffff1681526020016001820180546105e890610ddf565b80601f016020809104026020016040519081016040528092919081815260200182805461061490610ddf565b80156106615780601f1061063657610100808354040283529160200191610661565b820191906000526020600020905b81548152906001019060200180831161064457829003601f168201915b505050505081526020016002820154815250508152602001906001019061055f565b50505050905090565b610722816040516024016106a091906112a1565b6040516020818303038152906040527f41304fac000000000000000000000000000000000000000000000000000000007bffffffffffffffffffffffffffffffffffffffffffffffffffffffff19166020820180517bffffffffffffffffffffffffffffffffffffffffffffffffffffffff8381831617835250505050610902565b50565b6107bf83838360405160240161073d939291906112d2565b6040516020818303038152906040527fe0e9ad4f000000000000000000000000000000000000000000000000000000007bffffffffffffffffffffffffffffffffffffffffffffffffffffffff19166020820180517bffffffffffffffffffffffffffffffffffffffffffffffffffffffff8381831617835250505050610902565b505050565b610860848484846040516024016107de9493929190611317565b6040516020818303038152906040527f9c3adfa1000000000000000000000000000000000000000000000000000000007bffffffffffffffffffffffffffffffffffffffffffffffffffffffff19166020820180517bffffffffffffffffffffffffffffffffffffffffffffffffffffffff8381831617835250505050610902565b50505050565b6108fe828260405160240161087c92919061136a565b6040516020818303038152906040527fb60e72cc000000000000000000000000000000000000000000000000000000007bffffffffffffffffffffffffffffffffffffffffffffffffffffffff19166020820180517bffffffffffffffffffffffffffffffffffffffffffffffffffffffff8381831617835250505050610902565b5050565b60008151905060006a636f6e736f6c652e6c6f679050602083016000808483855afa5050505050565b6000604051905090565b600080fd5b600080fd5b600080fd5b600080fd5b6000601f19601f8301169050919050565b7f4e487b7100000000000000000000000000000000000000000000000000000000600052604160045260246000fd5b61099282610949565b810181811067ffffffffffffffff821117156109b1576109b061095a565b5b80604052505050565b60006109c461092b565b90506109d08282610989565b919050565b600067ffffffffffffffff8211156109f0576109ef61095a565b5b6109f982610949565b9050602081019050919050565b82818337600083830152505050565b6000610a28610a23846109d5565b6109ba565b905082815260208101848484011115610a4457610a43610944565b5b610a4f848285610a06565b509392505050565b600082601f830112610a6c57610a6b61093f565b5b8135610a7c848260208601610a15565b91505092915050565b600060208284031215610a9b57610a9a610935565b5b600082013567ffffffffffffffff811115610ab957610ab861093a565b5b610ac584828501610a57565b91505092915050565b6000819050919050565b610ae181610ace565b82525050565b6000602082019050610afc6000830184610ad8565b92915050565b600081519050919050565b600082825260208201905092915050565b6000819050602082019050919050565b600073ffffffffffffffffffffffffffffffffffffffff82169050919050565b6000610b5982610b2e565b9050919050565b610b6981610b4e565b82525050565b600081519050919050565b600082825260208201905092915050565b60005b83811015610ba9578082015181840152602081019050610b8e565b60008484015250505050565b6000610bc082610b6f565b610bca8185610b7a565b9350610bda818560208601610b8b565b610be381610949565b840191505092915050565b610bf781610ace565b82525050565b6000606083016000830151610c156000860182610b60565b5060208301518482036020860152610c2d8282610bb5565b9150506040830151610c426040860182610bee565b508091505092915050565b6000610c598383610bfd565b905092915050565b6000602082019050919050565b6000610c7982610b02565b610c838185610b0d565b935083602082028501610c9585610b1e565b8060005b85811015610cd15784840389528151610cb28582610c4d565b9450610cbd83610c61565b925060208a01995050600181019050610c99565b50829750879550505050505092915050565b60006020820190508181036000830152610cfd8184610c6e565b905092915050565b7f4e487b7100000000000000000000000000000000000000000000000000000000600052601160045260246000fd5b6000610d3f82610ace565b9150610d4a83610ace565b9250828201905080821115610d6257610d61610d05565b5b92915050565b6000610d7382610ace565b91507fffffffffffffffffffffffffffffffffffffffffffffffffffffffffffffffff8203610da557610da4610d05565b5b600182019050919050565b7f4e487b7100000000000000000000000000000000000000000000000000000000600052602260045260246000fd5b60006002820490506001821680610df757607f821691505b602082108103610e0a57610e09610db0565b5b50919050565b60008190508160005260206000209050919050565b60006020601f8301049050919050565b600082821b905092915050565b600060088302610e727fffffffffffffffffffffffffffffffffffffffffffffffffffffffffffffffff82610e35565b610e7c8683610e35565b95508019841693508086168417925050509392505050565b6000819050919050565b6000610eb9610eb4610eaf84610ace565b610e94565b610ace565b9050919050565b6000819050919050565b610ed383610e9e565b610ee7610edf82610ec0565b848454610e42565b825550505050565b600090565b610efc610eef565b610f07818484610eca565b505050565b5b81811015610f2b57610f20600082610ef4565b600181019050610f0d565b5050565b601f821115610f7057610f4181610e10565b610f4a84610e25565b81016020851015610f59578190505b610f6d610f6585610e25565b830182610f0c565b50505b505050565b600082821c905092915050565b6000610f9360001984600802610f75565b1980831691505092915050565b6000610fac8383610f82565b9150826002028217905092915050565b610fc582610b6f565b67ffffffffffffffff811115610fde57610fdd61095a565b5b610fe88254610ddf565b610ff3828285610f2f565b600060209050601f8311600181146110265760008415611014578287015190505b61101e8582610fa0565b865550611086565b601f19841661103486610e10565b60005b8281101561105c57848901518255600182019150602085019450602081019050611037565b868310156110795784890151611075601f891682610f82565b8355505b6001600288020188555050505b505050505050565b600082825260208201905092915050565b60006110aa82610b6f565b6110b4818561108e565b93506110c4818560208601610b8b565b6110cd81610949565b840191505092915050565b60006040820190506110ed6000830185610ad8565b81810360208301526110ff818461109f565b90509392505050565b7f547279696e6720746f207769746864726177206d6f7265206d6f6e657920746860008201527f616e2074686520636f6e7472616374206861732e000000000000000000000000602082015250565b600061116460348361108e565b915061116f82611108565b604082019050919050565b6000602082019050818103600083015261119381611157565b9050919050565b600081905092915050565b50565b60006111b560008361119a565b91506111c0826111a5565b600082019050919050565b60006111d6826111a8565b9150819050919050565b7f4661696c656420746f207769746864726177206d6f6e65792066726f6d20636f60008201527f6e74726163742e00000000000000000000000000000000000000000000000000602082015250565b600061123c60278361108e565b9150611247826111e0565b604082019050919050565b6000602082019050818103600083015261126b8161122f565b9050919050565b7f4e487b7100000000000000000000000000000000000000000000000000000000600052603260045260246000fd5b600060208201905081810360008301526112bb818461109f565b905092915050565b6112cc81610b4e565b82525050565b600060608201905081810360008301526112ec818661109f565b90506112fb60208301856112c3565b818103604083015261130d818461109f565b9050949350505050565b600060808201905061132c6000830187610ad8565b818103602083015261133e818661109f565b905061134d60408301856112c3565b818103606083015261135f818461109f565b905095945050505050565b60006040820190508181036000830152611384818561109f565b90506113936020830184610ad8565b939250505056fea26469706673582212205afd144879ea4af3c7bf169d71cc977f5b23ea09689b889ee6fa4beb236ab9b464736f6c63430008110033",
  "linkReferences": {},
  "deployedLinkReferences": {}
}